:020000040800F2
:10000000080500200101000825010008270100085B
:10001000290100082B0100082D0100080000000044
:100020000000000000000000000000002F01000898
:10003000310100080000000033010008350100080C
:1000400037010008370100083701000837010008B0
:1000500037010008370100083701000837010008A0
:100060003701000837010008370100083701000890
:100070003701000837010008370100083701000880
:100080003701000837010008370100083701000870
:100090003701000837010008370100083701000860
:1000A0003701000837010008370100083701000850
:1000B0003701000837010008370100083701000840
:1000C0003701000837010008370100083701000830
:1000D0003701000837010008370100083701000820
:1000E000370100083701000837010008DFF80CD09D
:1000F00000F02CF800480047910100080805002096
:100100000D488047DFF83400016841F4E0210160C8
:10011000BFF34F8FDFF82800DFF8281001600A488E
:1001200000477047FEE7FEE7FEE7FEE7FEE7FEE773
:10013000FEE7FEE7FEE7FEE72301000824ED00E00E
:100140000CED00E00003FA05ED000008064C074D39
:1001500006E0E06840F0010394E807009847103497
:10016000AC42F6D3FFF7C6FF340200085402000881
:1001700002E008C8121F08C1002AFAD17047704770
:10018000002001E001C1121F002AFBD170470000CE
:1001900000200C4908600EE00B490A48006800F096
:1001A00017F80A49074A126841F822000548006812
:1001B000401C04490860034800684028ECDB00BF8D
:1001C000FEE70000000000205402000804000020A8
:1001D0002DE98347154A00F011F8034603BC144A81
:1001E00000F00CF8024683FB037882FB029AD044AD
:1001F0004046BDE880075DF804EB7047F8B44FF067
:10020000000CFFE70CFB00F505F03F0532F9154047
:1002100031F91C3003FB04F73E440CF1010CBCF136
:10022000400FEFD13046FFE7F8BC7047D40200081A
:1002300054030008D403000800000020040000005C
:1002400070010008D8030008040000200405000025
:1002500080010008FF0FF60FD90FA80F640F0E0FD3
:10026000A70E2F0EA80D130D720CC50B100B530A01
:100270009009C908000837077006AD05F0043B0473
:100280008E03ED025802D1015901F2009C00580082
:1002900027000A0000000A00270058009C00F20016
:1002A0005901D1015802ED028E033B04F004AD0563
:1002B000700637070008C9089009530A100BC50BD0
:1002C000720C130DA80D2F0EA70E0E0F640FA80FA2
:1002D000D90FF60FFF7F627F8A7D7D7A4276E370C9
:1002E0006E6AF262825A34511D47573CFC30282511
:1002F000F9188C0C000074F307E7D8DA04CFA9C30F
:10030000E3B8CCAE7EA50E9D92951D8FBE898385E8
:1003100076829E8000809E8076828385BE891D8F36
:1003200092950E9D7EA5CCAEE3B8A9C304CFD8DAD2
:1003300007E774F300008C0CF9182825FC30573CB3
:100340001D473451825AF2626E6AE37042767D7ABA
:100350008A7D627F00008C0CF9182825FC30573C00
:100360001D473451825AF2626E6AE37042767D7A9A
:100370008A7D627FFF7F627F8A7D7D7A4276E3702D
:100380006E6AF262825A34511D47573CFC30282570
:10039000F9188C0C000074F307E7D8DA04CFA9C36E
:1003A000E3B8CCAE7EA50E9D92951D8FBE89838548
:1003B00076829E8000809E8076828385BE891D8F96
:1003C00092950E9D7EA5CCAEE3B8A9C304CFD8DA32
:0803D00007E774F300000000D0
:04000005080000ED02
:00000001FF
