:020000040800F2
:10000000A0050020010100082501000827010008C3
:10001000290100082B0100082D0100080000000044
:100020000000000000000000000000002F01000898
:1000300031010008000000003301000855060008E7
:1000400037010008370100083701000837010008B0
:1000500037010008370100083701000837010008A0
:100060003701000837010008370100083701000890
:100070003701000837010008370100083701000880
:100080003701000837010008370100083701000870
:100090003701000837010008370100083701000860
:1000A00037010008A5070008370100089906000875
:1000B000BD070008CD080008F9090008370100084D
:1000C0003701000837010008370100083701000830
:1000D0003701000837010008370100083701000820
:1000E000370100083701000837010008DFF80CD09D
:1000F00000F02CF800480047290D0008A00500205A
:100100000D488047DFF83400016841F4E0210160C8
:10011000BFF34F8FDFF82800DFF8281001600A488E
:1001200000477047FEE7FEE7FEE7FEE7FEE7FEE773
:10013000FEE7FEE7FEE7FEE72301000824ED00E00E
:100140000CED00E00003FA05ED000008064C074D39
:1001500006E0E06840F0010394E807009847103497
:10016000AC42F6D3FFF7C6FF0410000824100008C5
:100170002DE9F041DFF8C4C0314B604503D19C69E3
:1001800044F400649C614FF08046B04203D1DC69C6
:1001900044F00104DC612B4DA84203D1DC6944F03A
:1001A0000204DC61284FB84203D1DC6944F0040446
:1001B000DC61838943F0010383810F2900D90F217A
:1001C000224C4FF0E02360450CD12261DFF88080A3
:1001D0004FEA011C88F800C0D3F800C14CF0007C45
:1001E000C3F800C1B0420DD16261DFF864C00E01F6
:1001F0000CF1030C8CF80060D3F8006146F08056D7
:10020000C3F80061A8420AD1A261114E0D01361D4A
:100210003570D3F8005145F00055C3F80051B8428D
:100220000AD1E26108010A49491D0870D3F80001AA
:1002300040F08040C3F80001BDE8F081002C01408F
:10024000001002400004004000080040140000209C
:1002500019E400E070B5194C83202060002565602A
:10026000A56017486060012000F048F86168084305
:10027000606014490D60086840F002000860206862
:1002800040F48030206020688003FCD5206840F076
:100290008070206020688001FCD5606820F0030039
:1002A0006060606840F002006060606840F4800058
:1002B0006060086840F01000086070BD00100240E7
:1002C00000841D000020024000487047001BB7005A
:1002D0000048704700A24A040549064A884202D0F5
:1002E0000549884201D1104670471046704700000A
:1002F000002C014000A24A0400340140012804D02F
:10030000B0F5807F03DD012102E000202CE0002118
:10031000802801DD012200E000220A44402801DD9E
:10032000012100E000210A44102801DD012100E044
:1003300000210A44082801DD012100E000210A44CF
:10034000042801DD012100E000210A44022801DD2A
:10035000012100E000211144012801DD012000E01D
:1003600000200844C01D0001702800D10020704703
:10037000F0B53B4E3B4CB04203D1A66946F00406B3
:10038000A661394EB04203D1A66946F00806A661BF
:10039000364EB04203D1A66946F01006A661344E2F
:1003A000B04203D1A66946F02006A661314EB042A4
:1003B00003D1A66946F04006A66100240F2900DD9E
:1003C0000124692A01D0492A02D1032B00D101243A
:1003D000032B00DD0124692A06D0492A04D06F2AA4
:1003E00002D04F2A00D00124692A01D0492A00D125
:1003F00000256F2A01D04F2A00D1012503260222B1
:10040000082915DA076802EB810206FA02FC27EADE
:100410000C070760076893401F4307600268890064
:100420008E40B243026002688D402A43026015E0AC
:100430000839476802EB810206FA02FC27EA0C073A
:100440004760476893401F434760426889008E4079
:10045000B243426042688D402A4342602046F0BD6C
:100460000008014000100240000C01400010014053
:100470000014014000180140094801610021416257
:100480008162C16201631122C26341641822026465
:100490008164C1644FF6FF7242638163704700005C
:1004A0004C01002010B51948002908D0012908D0B6
:1004B000022908D0032908D005290AD0FEE7012126
:1004C00009E0022107E0032105E04FF0804002210E
:1004D00001E00F480421C1B10E4CE060A260002091
:1004E0006062FFF7F5FE4FF47A71B0FBF1F1E0685E
:1004F00000F018FB084A0221E068FFF739FEE068C7
:10050000018841F00101018010BDFEE7002C01408F
:10051000000800404C0100200D0D000870B50D468C
:100520000024FFF7D1FE0646FFF7D2FEB0FBF6F13E
:100530006800B0FBF1F0032801D8032020E00F2869
:1005400002D801240F201BE01B2802D802241B2004
:1005500016E0392802D80324392011E0532802D8A4
:10056000042453200CE06F2802D805246F2007E0F4
:100570008F2802D806248F2002E0072440F2DF10E3
:10058000022C00D2FEE719301E4A48434008506052
:10059000156015F003014FF0F80418D0012919D0A7
:1005A00002291AD0D461C5F38101C9B101291AD039
:1005B00002291BD064211165C5F302110023032910
:1005C00017D0042917D0052917D0136270BD1F2139
:1005D000D161E8E73E21D161E5E77C21D161E2E725
:1005E00004211165E8E70C211165E5E72421116577
:1005F000E2E7136270BD146270BD4FF47A7111624C
:1006000070BD00004C0100207047000070B5104D17
:10061000411ED5E9012301FB0321A961EC68228D6C
:10062000521CB1FBF2F3696AA28C6E6A8E4201D051
:10063000696AA28C9A4201D9D21A04E0A48D22449C
:10064000D21A521C491C6A63A963686170BD00001C
:100650004C01002001480068004700001000002005
:100660004FF0E0210A6942F004020A616FF07F4214
:10067000904204D30A6922F004020A61C00848616A
:1006800070470000024A116002490001087070477B
:100690001000002023ED00E070B53B4908883B4C7A
:1006A00082073B4DA4F12006A4F1800018D50A88EA
:1006B00022F002020A800178012901D1006A8047F4
:1006C00028888107334802D40088208003E000880E
:1006D0002188401A3080288880F00200288070BD70
:1006E0000A88520718D50A8822F004020A80417845
:1006F000012901D1406A804728888106264802D412
:100700000088608003E000886188401A7080288833
:1007100080F02000288070BD0A88120718D50A884A
:1007200022F008020A808178032901D1806A80477B
:1007300028888105194802D40088A08003E0008839
:10074000A188401AB080288880F40070288070BD8D
:100750000A88D206FBD50A8822F010020A80C178E6
:10076000012901D1C06A8047288881040C4802D43D
:100770000088E08003E00088E188401AF080288843
:1007800080F40050288070BD102C0140940000209F
:10079000202C0140342C0140382C01403C2C0140DD
:1007A000402C01400348018821F0010101800248EA
:1007B00000690047102C01401400002070B54FF074
:1007C0008045288AC10740480AD0A989C90707D0AF
:1007D000298A21F0010129824069BDE87040004763
:1007E000298A394C8A07384904F18804A4F1200683
:1007F000497916D52A8A22F002022A82012901D1DA
:10080000006B8047288C800702D4A88E208003E0EC
:10081000A88E2188401A3080288C80F0020028841D
:1008200070BD2A8A520716D52A8A22F004022A822B
:10083000012901D1406B8047288C800602D4288F83
:10084000608003E0288F6188401A7080288C80F0D7
:100850002000288470BD298A090717D5298A21F02C
:10086000080129828179012901D1806B8047288C78
:10087000800502D4A88FA08003E0A88FA188401A29
:10088000B080288C80F40070288470BD298AC90645
:10089000FBD5298A21F010012982C179012901D1D2
:1008A000C06B8047288C800403D4B5F84000E080FA
:1008B00004E0B5F84000E188401AF080288C80F40C
:1008C0000050288470BD00001400002070B543491A
:1008D0000888C20742480BD00A1F1288D20707D0E7
:1008E0000A8822F001020A808069BDE87040004752
:1008F0000A883B4C3B4D04F190049207A4F120067A
:1009000018D50A8822F002020A80017A012901D151
:10091000006C804728888107334802D400882080F3
:1009200003E000882188401A3080288880F0020087
:10093000288070BD0A88520718D50A8822F0040260
:100940000A80417A012901D1406C804728888106BC
:10095000264802D40088608003E000886188401A3D
:100960007080288880F02000288070BD0A881207D7
:1009700018D50A8822F008020A80817A012901D15B
:10098000806C804728888105194802D40088A0809F
:1009900003E00088A188401AB080288880F40070A5
:1009A000288070BD0A88D206FBD50A8822F0100282
:1009B0000A80C17A012901D1C06C8047288881044E
:1009C0000C4802D40088E08003E00088E188401AE7
:1009D000F080288880F40050288070BD100400400A
:1009E000140000202004004034040040380400407B
:1009F0003C0400404004004070B543490888C207E9
:100A000042480BD00A1F1288D20707D00A8822F06A
:100A100001020A80C069BDE8704000470A883B4C6B
:100A20003B4D04F198049207A4F1200618D50A88DA
:100A300022F002020A80017B012901D1006D80476A
:100A400028888107334802D40088208003E000888A
:100A50002188401A3080288880F00200288070BDEC
:100A60000A88520718D50A8822F004020A80417BBE
:100A7000012901D1406D804728888106264802D48B
:100A80000088608003E000886188401A70802888B0
:100A900080F02000288070BD0A88120718D50A88C7
:100AA00022F008020A80817B012901D1806D8047F4
:100AB00028888105194802D40088A08003E00088B6
:100AC000A188401AB080288880F40070288070BD0A
:100AD0000A88D206FBD50A8822F010020A80C17B60
:100AE000012901D1C06D8047288881040C4802D4B7
:100AF0000088E08003E00088E188401AF0802888C0
:100B000080F40050288070BD1008004014000020C0
:100B10002008004034080040380800403C080040ED
:100B20004008004070B504460D46194919488C42EA
:100B300003D1816941F400618161B4F1804F03D137
:100B4000C16941F00101C16113498C4203D1C169FE
:100B500041F00201C16111498C4203D1C16941F0E8
:100B60000401C161FFF7B4FB06462046FFF7B4FB62
:100B7000B6FBF0F0B5FBF0F0010C4A1CB0FBF2F054
:100B80002185401EA085A0841120208070BD00001A
:100B9000002C01400010024000040040000800400A
:100BA0002DE9F0434E4CE668B08C2146676B8A6BAA
:100BB000B84202D8606A904273D0606A904270D89E
:100BC00000204749DFF81C81D4F814C0CD6C39E00F
:100BD00094F83C10414301F03F03616C38F9133045
:100BE0005943CB1701EB5341C91385420FD894F8F1
:100BF0004030434303F03F09A36C38F9199003FBDD
:100C000009F34FEAE37903EB594301EBE331DFF8F2
:100C1000D890236D39F9109003FB09F34FEAE3797B
:100C200003EB195301EB233101F50061002900DAD0
:100C30000021B1F5805F01DB40F6FF71236923F8E5
:100C40001010401C8445C3D8002305B1E364A06A9A
:100C500032283AD1A362E06A401CE062E06A0628CA
:100C600033D2DFE800F03203060C0E10E169616454
:100C70002BE0216A2046A1642021C16425E0636441
:100C800023E0A36421E02146E362086B401C086373
:100C9000086B062811D005DC012808D0032814D1E0
:100CA00008E01BE00A280BD00F280ED10BE0122021
:100CB000C8630AE01320C86307E01420C86304E097
:100CC0001720C86301E0CB610B62B08CB84202D838
:100CD000606A904202D0606A9042F6D9BDE8F08323
:100CE0004C010020040F0008840F000802E008C82F
:100CF000121F08C1002AFAD170477047002001E096
:100D000001C1121F002AFBD1704700000548416A4B
:100D1000491C4162816A322902D2816A491C81627E
:100D2000704700004C010020FFF794FA002369226D
:100D300002212148FFF71CFB00236F2201211F48DD
:100D4000FFF716FB00236F220E211C48FFF710FB54
:100D500048211B48FFF7E2FB02211948FFF754FC2A
:100D6000E12203211648FFF79DFB16490020FFF7FB
:100D700083FB15480068FFF773FC14490320FFF755
:100D800081FC4FF0E020006940F001004FF0E021CD
:100D900008610846006940F0020008610AE00C485A
:100DA000006838B14FF480400449103108600020D9
:100DB00007490860F3E7000000080140000C01400B
:100DC00000240140B400002000000020D50D0008E0
:100DD0000800002070B502202B4908604020FFF772
:100DE00015FCFFF7DDFE2948806820F00100274947
:100DF0008860002440E02649204600F051F805466E
:100E000024480068854232DBA4F11100082829D269
:100E1000DFE800F0040A101628281C221E4800688B
:100E2000401C1D4908601DE01B484068401C1A49D1
:100E3000486017E018488068401C1749886011E036
:100E40001548C068401C1449C8600BE0124800698E
:100E5000401C1149086105E00F484069401C0E49DB
:100E6000486100BF00BF01200C49086003E000207A
:100E7000094941F82400641C402CBCDD02200249D1
:100E8000091D086070BD0000100C01400000024008
:100E9000B4000020040000203401002008000020DD
:100EA0002DE98347154A00F011F8034603BC144AA4
:100EB00000F00CF8024683FB037882FB029AD044D0
:100EC0004046BDE880075DF804EB7047F8B44FF08A
:100ED000000CFFE70CFB00F505F03F0532F915406B
:100EE00031F91C3003FB04F73E440CF1010CBCF15A
:100EF000400FEFD13046FFE7F8BC704724100008E0
:100F0000A4100008FF7F627F8A7D7D7A4276E370BD
:100F10006E6AF262825A34511D47573CFC302825D4
:100F2000F9188C0C000074F307E7D8DA04CFA9C3D2
:100F3000E3B8CCAE7EA50E9D92951D8FBE898385AC
:100F400076829E8000809E8076828385BE891D8FFA
:100F500092950E9D7EA5CCAEE3B8A9C304CFD8DA96
:100F600007E774F300008C0CF9182825FC30573C77
:100F70001D473451825AF2626E6AE37042767D7A7E
:100F80008A7D627F670AEF084C0B860FF90AA0087A
:100F90009507E3027B0434040F06AC011A0B890C9D
:100FA0000802030E4C01BD0EC70AB70AD20C810C11
:100FB000FD0EF8048F07140E03043E02280E8F095D
:100FC00007009E0AB90C3A0B5E09C60F60031F06A4
:100FD000D107B30C20078D097F06C101CF0948084E
:100FE0009409A20A040118017F0CFF074B0C390970
:100FF000A401D7050A0116024C08E1050307B70250
:10100000A90D9C032411000800000020B40000007A
:10101000EC0C0008D8110008B4000020EC0400001B
:10102000FC0C0008FF7F627F8A7D7D7A4276E37048
:101030006E6AF262825A34511D47573CFC302825B3
:10104000F9188C0C000074F307E7D8DA04CFA9C3B1
:10105000E3B8CCAE7EA50E9D92951D8FBE8983858B
:1010600076829E8000809E8076828385BE891D8FD9
:1010700092950E9D7EA5CCAEE3B8A9C304CFD8DA75
:1010800007E774F300008C0CF9182825FC30573C56
:101090001D473451825AF2626E6AE37042767D7A5D
:1010A0008A7D627F00008C0CF9182825FC30573CA3
:1010B0001D473451825AF2626E6AE37042767D7A3D
:1010C0008A7D627FFF7F627F8A7D7D7A4276E370D0
:1010D0006E6AF262825A34511D47573CFC30282513
:1010E000F9188C0C000074F307E7D8DA04CFA9C311
:1010F000E3B8CCAE7EA50E9D92951D8FBE898385EB
:1011000076829E8000809E8076828385BE891D8F38
:1011100092950E9D7EA5CCAEE3B8A9C304CFD8DAD4
:1011200007E774F3407E050009000000000000009E
:1011300000000000000000000000000000000000AF
:10114000000000000000000000000000000000009F
:10115000000000000000000000000000000000008F
:10116000000000000000000000000000000000007F
:10117000000000000000000000000000000000006F
:10118000000000000000000000000000000000005F
:10119000000000000000000000000000000000004F
:1011A000000000000000000000000000000000003F
:1011B000000000000000000000000000000000002F
:1011C000000000000000000000000000000000001F
:0811D000000000000000000017
:04000005080000ED02
:00000001FF
