:020000040800F2
:10000000080400200101000825010008270100085C
:10001000290100082B0100082D0100080000000044
:100020000000000000000000000000002F01000898
:10003000310100080000000033010008350100080C
:1000400037010008370100083701000837010008B0
:1000500037010008370100083701000837010008A0
:100060003701000837010008370100083701000890
:100070003701000837010008370100083701000880
:100080003701000837010008370100083701000870
:100090003701000837010008370100083701000860
:1000A0003701000837010008370100083701000850
:1000B0003701000837010008370100083701000840
:1000C0003701000837010008370100083701000830
:1000D0003701000837010008370100083701000820
:1000E000370100083701000837010008DFF80CD09D
:1000F00000F02CF800480047910100080804002097
:100100000D488047DFF83400016841F4E0210160C8
:10011000BFF34F8FDFF82800DFF8281001600A488E
:1001200000477047FEE7FEE7FEE7FEE7FEE7FEE773
:10013000FEE7FEE7FEE7FEE72301000824ED00E00E
:100140000CED00E00003FA05ED000008064C074D39
:1001500006E0E06840F0010394E807009847103497
:10016000AC42F6D3FFF7C6FFEC0100080C02000812
:1001700002E008C8121F08C1002AFAD17047704770
:10018000002001E001C1121F002AFBD170470000CE
:100190000024002510E0284600F016F80446084820
:1001A0000068844201DD0648046006480068844215
:1001B00001DA044804606D1C402DECDB00BFFEE753
:1001C00000000020040000200649074A31F91030E1
:1001D00032F910C003FB03F30CFB0CFC634418461C
:1001E000FFE770478C0200080C0200080C030008AF
:1001F000000000200800000070010008140300083F
:10020000080000200004000080010008FF7F627FDA
:100210008A7D7D7A4276E3706E6AF262825A345148
:100220001D47573CFC302825F9188C0C000074F34E
:1002300007E7D8DA04CFA9C3E3B8CCAE7EA50E9DFC
:1002400092951D8FBE89838576829E8000809E80D8
:1002500076828385BE891D8F92950E9D7EA5CCAE3C
:10026000E3B8A9C304CFD8DA07E774F300008C0C15
:10027000F9182825FC30573C1D473451825AF26248
:100280006E6AE37042767D7A8A7D627F00008C0C14
:10029000F9182825FC30573C1D473451825AF26228
:1002A0006E6AE37042767D7A8A7D627FFF7F627F2D
:1002B0008A7D7D7A4276E3706E6AF262825A3451A8
:1002C0001D47573CFC302825F9188C0C000074F3AE
:1002D00007E7D8DA04CFA9C3E3B8CCAE7EA50E9D5C
:1002E00092951D8FBE89838576829E8000809E8038
:1002F00076828385BE891D8F92950E9D7EA5CCAE9C
:10030000E3B8A9C304CFD8DA07E774F3000000000C
:04031000FFFFFF07E5
:04000005080000ED02
:00000001FF
