:020000040800F2
:10000000B8040020010100082501000827010008AC
:10001000290100082B0100082D0100080000000044
:100020000000000000000000000000002F01000898
:10003000310100080000000033010008350100080C
:1000400037010008370100083701000837010008B0
:1000500037010008370100083701000837010008A0
:100060003701000837010008370100083701000890
:100070003701000837010008370100083701000880
:100080003701000837010008370100083701000870
:100090003701000837010008370100083701000860
:1000A00037010008A310000837010008090F0008F5
:1000B000BD100008E1120008911400083701000883
:1000C0003701000837010008370100083701000830
:1000D0003701000837010008370100083701000820
:1000E000370100083701000837010008DFF80CD09D
:1000F00001F074FE00480047411E0008B8040020CB
:100100000D488047DFF83400016841F4E0210160C8
:10011000BFF34F8FDFF82800DFF8281001600A488E
:1001200000477047FEE7FEE7FEE7FEE7FEE7FEE773
:10013000FEE7FEE7FEE7FEE72301000824ED00E00E
:100140000CED00E00003FA05ED000008014601296E
:1001500001D1002231E0B1F5807F01DD012200E014
:100160000022D21D802901DD012300E000231A4472
:10017000402901DD012300E000231A44102901DD9C
:10018000012300E000231A44082901DD012300E0D7
:1001900000231A44042901DD012300E000231A444E
:1001A000022901DD012300E000231A44012901DDB9
:1001B000012300E000231A4412011046702800D1E8
:1001C0000020704710B583202C490860002048604B
:1001D00088602B4848600120FFF7B8FF274949682D
:1001E0000843264948600020264908600846006800
:1001F00040F0020008602148006840F480301F4948
:10020000086000BF1D48006810F4003FFAD01B488A
:10021000006840F080701949086000BF1748006806
:1002200010F0007FFAD01548406820F00300134911
:1002300048600846406840F0020048600846406850
:1002400040F4800048600F48006840F010000D49FD
:10025000086010BD01460C48814202D00B48814223
:1002600001D10B4870470A48FCE709487047094824
:100270007047074870470848704700000010024068
:1002800000841D0000200240002C01400034014089
:1002900000A24A0400512502001BB7002DE9F041DD
:1002A0000446584FBC4207D1574FBF6947F0040777
:1002B000DFF854C1CCF81870544FBC4207D1524FEC
:1002C000BF6947F00807DFF840C1CCF81870504FFD
:1002D000BC4207D14C4FBF6947F01007DFF828C177
:1002E000CCF818704B4FBC4207D1474FBF6947F05D
:1002F0002007DFF814C1CCF81870474FBC4207D173
:10030000414FBF6947F04007DFF8FCC0CCF81870D8
:1003100000200F2900DD0120692A01D0492A02D1DD
:10032000032B00D10120032B00DD0120692A06D018
:10033000492A04D06F2A02D04F2A00D00120692A0E
:1003400001D0492A00D100266F2A01D04F2A00D1BE
:100350000126082928DA27684FEA810C0CF1020CE3
:100360004FF0030808FA0CF827EA08072760276807
:100370004FEA810C0CF1020C03FA0CFC47EA0C0763
:10038000276027684FEA81084FF0030C0CFA08FC3D
:1003900027EA0C07276027684FEA810C06FA0CFC55
:1003A00047EA0C0727602AE0A1F10807FDB2676859
:1003B0004FEA850C0CF1020C4FF0030808FA0CF818
:1003C00027EA0807676067684FEA850C0CF1020CA2
:1003D00003FA0CFC47EA0C07676067684FEA850878
:1003E0004FF0030C0CFA08FC27EA0C0767606768FB
:1003F0004FEA850C06FA0CFC47EA0C076760BDE87B
:10040000F08100000008014000100240000C014093
:100410000010014000140140001801402DE9F34F85
:100420008FB00646F948864205D1F948806940F404
:100430000060F7498861B6F1804F05D1F448C06982
:1004400040F00100F249C861F248864205D1F04807
:10045000C06940F00200EE49C861EF48864205D10C
:10046000EB48C06940F00400E949C8613046FFF735
:10047000F1FE0E900E9801F05CFB0A90109901F0CD
:1004800057F90B9001F094FB0022E44BCDE90C01ED
:1004900001F0D7FA044601F0CFFB8246504601F046
:1004A00087FB0022DE4BCDE90C0101F0CAFA0446BD
:1004B00001F0C2FB8146484601F066FB401C87B252
:1004C000384601F036FB04462146504601F062F9F9
:1004D0008046781E3085404601F056FB401EB085B0
:1004E000404601F051FB401EB0840E9801F026FBFF
:1004F000CDE90A01308D01F01CFB039001F058FB9F
:1005000004460022C74B01F083F9CDE90601B08D06
:1005100001F00FFB019001F04BFB04460022C14BA0
:1005200001F076F90022BD4BCDE9020101F017FA86
:10053000CDE90401DDE9062301F011FACDE9080156
:10054000DDE90A2301F07DFACDE90C0101F074FB2D
:10055000834611203080584611B0BDE8F08F2DE958
:10056000F04704460D46A948844205D1A848806951
:1005700040F40060A6498861B4F1804F05D1A448D9
:10058000C06940F00100A249C861A248844205D177
:100590009F48C06940F002009D49C8619E4884425E
:1005A00005D19B48C06940F004009949C861FFF734
:1005B0005CFE81462046FFF74DFEB9FBF0F8B5FB27
:1005C000F8F52E0C761CB5FBF6F7701E2085781E0C
:1005D000A085A08411202080BDE8F08710B58B4B4A
:1005E000984205D18A4B9B6943F40063884CA36110
:1005F000B0F1804F05D1864BDB6943F00103844C99
:10060000E361844B984205D1814BDB6943F00203DF
:100610007F4CE361804B984205D17D4BDB6943F011
:1006200004037B4CE361838943F0010383810F2939
:1006300000DD0F21754B98420DD17B4B1A600B07E3
:100640001C0E7A4B1C707A4B1B6843F000734FF002
:10065000E024C4F80031B0F1804F0DD1754B1A6021
:100660000B071C0E744B1C70714B1B6843F08053BE
:100670004FF0E024C4F80031664B98420DD16F4B27
:100680001A600B071C0E6E4B1C70694B1B6843F005
:1006900000534FF0E024C4F800315F4B98420DD175
:1006A000684B1A600B071C0E674B1C70604B1B6875
:1006B00043F080434FF0E024C4F8003110BD70B522
:1006C000524CA04205D1524CA46944F40064504DF0
:1006D000AC61B0F1804F05D14D4CE46944F00104A8
:1006E0004B4DEC614B4CA04205D1494CE46944F0C0
:1006F0000204474DEC61484CA04205D1444CE469EA
:1007000044F00404424DEC610F2A00DD0F223F4CFF
:10071000A0420BD11407250E4C4C2570444C246884
:1007200044F000644FF0E025C5F80041B0F1804F7F
:100730000BD11407250E404C25703D4C246844F025
:1007400080544FF0E025C5F80041324CA0420BD157
:100750001407250E3A4C2570354C246844F000549B
:100760004FF0E025C5F800412B4CA0420BD11407F7
:10077000250E354C25702E4C246844F080444FF0F3
:10078000E025C5F80041214CA04221D1012906D025
:1007900002290AD003290ED0042918D111E02C4CCB
:1007A000236001242B4D2C7011E02B4C236001247D
:1007B0002A4D2C700BE02A4C23600124294D2C700B
:1007C00005E0294C23600124284D2C7000BFACE0CB
:1007D000B0F1804F5FD1012906D002290AD0032948
:1007E0000ED0042956D14FE0214C23600124214D25
:1007F0002C704FE0204C23600124204D2C7049E0E8
:100800001F4C236001241F4D2C7043E0002C01403D
:1008100000100240000400400008004080842E4187
:100820000000F0400000F03F0000002019E400E06C
:1008300000E100E0040000201CE400E008000020CB
:100840001DE400E00C0000201EE400E01BE400E0DA
:1008500020000020100000202400002011000020B3
:1008600028000020120000202C000020130000208F
:10087000300000201400002034000020150000206B
:100880003800002016000020FE4C23600124FE4D9D
:100890002C7000BF49E0FD4CA04221D1012906D0B7
:1008A00002290AD003290ED0042918D111E0F84CEE
:1008B00023600124F74D2C7011E0F74C23600124D4
:1008C000F64D2C700BE0F64C23600124F54D2C7096
:1008D00005E0F54C23600124F44D2C7000BF24E0AA
:1008E000F34CA04221D1012906D002290AD00329C4
:1008F0000ED0042918D111E0EE4C23600124EE4DF6
:100900002C7011E0ED4C23600124ED4D2C700BE0B8
:10091000EC4C23600124EC4D2C7005E0EB4C236083
:100920000124EB4D2C7000BF00BF012901D002292A
:1009300011D1058B4C1E042606EBC4060724B440D7
:10094000A5430583058B4C1E042606EBC406012433
:10095000B44025430583032901D0042911D1858B97
:10096000CC1E042606EBC4060724B440A5438583A9
:10097000858BCC1E042606EBC4060124B440254317
:100980008583848901258D402C43848170BD70B599
:1009900004460D46164631462046FFF7E0FD012D80
:1009A00001D0022D18D1208B691ECA00032191406D
:1009B00088432083218B681E042202EBC00207209B
:1009C000904081432183218B681E042202EBC002E8
:1009D0000620904001432183032D01D0042D18D11E
:1009E000A08BE91ECA00032191408843A083A18BFC
:1009F000E81E042202EBC002072090408143A1833D
:100A0000A18BE81E042202EBC002062090400143A5
:100A1000A183218C681E012202EB800201209040FC
:100A200081432184208C691E8A0001219140084362
:100A30002084A848844205D1B4F8440040F4004022
:100A4000A4F84400A08D401C80B270BD2DE9F05F79
:100A5000804689469246504601F0AAF8064632463C
:100A60000B4600209C4900F0ECFF044601F0E4F83E
:100A7000834659464046FFF7D1FCB9F1010F02D039
:100A8000B9F1020F21D1B8F81800A9F10101CA008B
:100A9000032191408843A8F81800B8F81810A9F16C
:100AA0000100042202EBC002072090408143A8F815
:100AB0001810B8F81810A9F10100042202EBC002C6
:100AC000062090400143A8F81810B9F1030F02D096
:100AD000B9F1040F21D1B8F81C00A9F10301CA0033
:100AE000032191408843A8F81C00B8F81C10A9F114
:100AF0000300042202EBC002072090408143A8F8C3
:100B00001C10B8F81C10A9F10300042202EBC0026B
:100B1000062090400143A8F81C10B8F82010A9F155
:100B20000100012202EB8002012090408143A8F8DD
:100B30002010B8F82000A9F101018A00012191409C
:100B40000843A8F820006348804505D1B8F8440060
:100B500040F40040A8F84400B8F82C00401C80B2D3
:100B6000BDE8F09F5D49896941F400615B4A91618C
:100B7000584920310988421E9200921C012393405B
:100B80001943544A2032118011460988421E9200AE
:100B9000D21C0123934099434E4A20321180704762
:100BA00010B502464B4B9A4205D14C4B9B6943F41E
:100BB00000634A4CA361B2F1804F05D1474BDB691A
:100BC00043F00103454CE361304B9A4205D1434B5E
:100BD000DB6943F00203414CE361354B9A4205D196
:100BE0003E4BDB6943F004033C4CE3610020138976
:100BF00023F007031381012903D0022901D003291F
:100C000003D113890B43138100E00120138B23F0E0
:100C100003031383138B43F001031383138B23F418
:100C200040731383138B43F480731383138C23F06B
:100C300002031384138C23F020031384138823F0FE
:100C400001031380138843F0010313804FF6FF73F1
:100C5000938510BD2DE9F04F8FB004460D46174621
:100C60009846189E1B48844205D11C48806940F470
:100C700000601A498861B4F1804F35D11748C069C6
:100C80002EE000003C00002017000020000400407F
:100C9000400000201800002044000020190000201F
:100CA000480000201A0000204C0000201B000020FB
:100CB00000080040500000201C00002054000020CC
:100CC0001D000020580000201E0000205C000020B5
:100CD0001F000020002C014000408F400010024007
:100CE00040F00100FE49C861FE48844205D1FC483D
:100CF000C06940F00200FA49C861FB48844205D14E
:100D0000F748C06940F00400F549C8612046FFF784
:100D1000A1FA0020A085404600F00BFF059000F0EE
:100D200047FFCDE90801384600F042FFEF4AF04B9B
:100D3000CDE9040100F013FECDE90601DDE9082349
:100D400000F07FFECDE90A0100F076FF81460E98A3
:100D500000F0EFFE49460B9000F0EAFC8246504658
:100D600000F026FF0022E34BCDE90A0100F034FF3A
:100D700002D201200C908CE0504600F019FF0022B6
:100D8000DD4BCDE90A0100F03FFF02D201200C90BB
:100D90007FE0504600F0F8FE401E2085012D01D076
:100DA000022D0DD1208B691ECA000321914088437A
:100DB0002083208B691ECA000121914008432083B3
:100DC000032D01D0042D0DD1A08BE91ECA000321F3
:100DD00091408843A083A08BE91ECA000121914065
:100DE0000843A083218C681E012202EB80020120AF
:100DF000904081432184208C691E8A00012191400A
:100E0000084320840F2E00DD0F26BC4884420BD1FE
:100E10003007010EBA480170BA48006840F000601F
:100E20004FF0E021C1F80001B4F1804F0BD1300741
:100E3000010EB5480170B348006840F080504FF093
:100E4000E021C1F80001A74884420BD13007010E10
:100E5000AE480170AB48006840F000504FF0E02110
:100E6000C1F80001A04884420BD13007010EA84808
:100E70000170A448006840F080404FF0E021C1F8C4
:100E80000001A0894FF0010101FA05F140EA0100DB
:100E9000A0814FF001002080218D01F1010000F0C0
:100EA0003FFE059000F084FECDE908010E9800F0A9
:100EB00040FE019000F07CFECDE90401384600F0D0
:100EC00077FE8A4A8A4BCDE9000100F048FDCDE962
:100ED0000201DDE9042300F042FDCDE90601DDE970
:100EE000082300F0AEFDCDE90A0100F0A5FE0D904B
:100EF0000D9800F030FE1FFA80FB4FF6FF70A085C2
:100F000058460FB0BDE8F08F10B57C48103000880F
:100F100000F0020002282BD178481030008820F021
:100F200002007649103108807A480078012802D101
:100F300079480068804771482030008810F0020F1F
:100F400005D16E48343000887449088007E06B484A
:100F50003430008871490988401A7149088067480F
:100F60002030008880F0020064492031088097E03A
:100F700062481030008800F0040004282BD15F483C
:100F80001030008820F004005C491031088065486A
:100F90000078012802D16448006880475748203013
:100FA000008810F0200F05D15448383000885B4984
:100FB000488007E051483830008858494988401A2D
:100FC000574948804D482030008880F020004B4928
:100FD0002031088064E049481030008800F00800A3
:100FE00008282BD145481030008820F008004349DC
:100FF000103108804D480078032802D14C48006821
:1010000080473E482030008810F4007F05D13B48DF
:101010003C3000884149888007E038483C300088EF
:101020003E498988401A3E498880344820300088EB
:1010300080F4007031492031088031E02F481030B1
:10104000008800F0100010282AD12C4810300088A9
:1010500020F0100029491031088036480078012816
:1010600002D135480068804724482030008810F4B9
:10107000005F05D12148403000882849C88007E03A
:101080001E48403000882549C988401A2449C88034
:101090001A482030008880F4005018492031088018
:1010A00010BD10B515481030008820F0010013491C
:1010B0001031088021480068804710BD10B54FF0FE
:1010C0008040008A00F00100012842D18007808919
:1010D00000F0010001283CD18007008A30E00000C8
:1010E0000010024000040040000800408DEDB5A053
:1010F000F7C6B03E0000F03F0000F040002C014079
:101100001BE400E000E100E01CE400E01DE400E07E
:101110001EE400E0100000202000002080000020DD
:101120006000002011000020240000201200002098
:1011300028000020130000202C00002000000020C8
:1011400020F001004FF080410882FE48006880478F
:10115000C5E04FF08040008A00F0020002282AD14A
:101160004007008A20F002004FF080410882F648D4
:101170000078012802D1F548006880474FF0804090
:10118000008C10F0020F05D14FF08040808EF049A6
:10119000088007E04FF08040808EED490988401AB2
:1011A000EC4908804FF08040008C80F002004FF046
:1011B0008041088493E04FF08040008A00F00400F2
:1011C00004282AD10007008A20F004004FF0804153
:1011D0000882DD480078012802D1DF480068804796
:1011E0004FF08040008C10F0200F05D14FF0804070
:1011F000008FD749488007E04FF08040008FD449E6
:101200004988401AD34948804FF08040008C80F0D4
:1012100020004FF08041088461E04FF08040008A58
:1012200000F0080008282AD1C006008A20F0080033
:101230004FF080410882C9480078012802D1C8488F
:10124000006880474FF08040008C10F4007F05D18B
:101250004FF08040808FBE49888007E04FF080408B
:10126000808FBB498988401ABA4988804FF08040F6
:10127000008C80F400704FF0804108842FE04FF024
:101280008040008A00F01000102828D18006008AD3
:1012900020F010004FF080410882B2480078012809
:1012A00002D1B148006880474FF08040008C10F4B4
:1012B000005F04D1AD480088A549C88007E0AB486D
:1012C0000088A349C988A0EB0100A249C8804FF05B
:1012D0008040008C80F400504FF08041088410BDA5
:1012E00010B5A348008800F00100012810D1A048E3
:1012F000001F008800F00100012809D19C480088E7
:1013000020F001009A4908809A4800688047BEE0B2
:101310009748008800F00200022829D194480088EC
:1013200020F002009249088093480078012802D1F9
:101330009248006880478E481030008810F0020FF5
:1013400005D18B48243000888D49088007E0884803
:10135000243000888A490988401A8A4908808448CC
:101360001030008880F002008149103108808EE042
:101370007F48008800F00400042829D17C480088B8
:1013800020F004007A4908807F480078012802D1C3
:101390007E480068804776481030008810F0200FA3
:1013A00005D17348283000887549488007E07048A7
:1013B0002830008872494988401A724948806C4830
:1013C0001030008880F020006949103108805EE00C
:1013D0006748008800F00800082829D16448008880
:1013E00020F008006249088069480078012802D18D
:1013F0006848006880475E481030008810F4007F1D
:1014000005D15B482C3000885D49888007E058484A
:101410002C3000885A498988401A5A498880544893
:101420001030008880F400705149103108802EE09F
:101430004F48008800F01000102828D14C48008840
:1014400020F010004A49088053480078012802D152
:1014500052480068804746481030008810F4005F0A
:1014600005D14348303000884549C88007E04048EE
:10147000303000884249C988401A4249C8803C48F7
:101480001030008880F4005039491031088010BDB8
:1014900010B54348008800F00100012810D14048F1
:1014A000001F008800F00100012809D13C48008895
:1014B00020F001003A4908803A4800688047FAE085
:1014C0003748008800F00200022829D134480088FB
:1014D00020F002003249088033480078012802D108
:1014E0003248006880472E481030008810F0020F04
:1014F00005D12B48243000882D49088007E0284872
:10150000243000882A490988401A2A49088024483A
:101510001030008880F00200214910310880CAE0B4
:101520001F48008800F00400042865D11C4800888A
:1015300020F004001A4908801F480078012841D192
:101540001E483DE00400002015000020300000206F
:1015500088000020680000203400002016000020D1
:1015600038000020170000203C0000204000004010
:101570001004004008000020180000204000002057
:10158000900000207000002019000020440000207E
:101590001A000020480000201B0000204C00002002
:1015A000100800400C0000201C000020500000200B
:1015B00098000020780000201D000020540000202A
:1015C000006880474E48008810F0200F05D14C4835
:1015D000183000884B49488007E049481830008897
:1015E00048494988401A484948804548008880F061
:1015F0002000434908805EE041481038008800F030
:101600000800082828D13E481038008820F008003B
:101610003B49103908803D480078012802D13C48F8
:10162000006880473648008810F4007F05D13448B0
:101630001C3000883349888007E031481C3000881E
:1016400030498988401A304988802D48008880F4C4
:1016500000702B4908802EE029481038008800F0DF
:101660001000102827D126481038008820F01000DC
:1016700023491039088027480078012802D12648DC
:10168000006880471E48008810F4005F05D11C48A0
:10169000203000881B49C88007E0194820300088A6
:1016A0001849C988401A1849C8801548008880F42C
:1016B00000501349088010BD10B50246174B9A42DE
:1016C00004D14B1E164C34F8130017E0B2F1804FD2
:1016D00004D14B1E134C34F813000FE0124B9A4206
:1016E00004D14B1E114C34F8130007E0044B203B8F
:1016F0009A4203D14B1E044C34F8130010BD000075
:101700002008004098000020780000201E000020E3
:10171000580000201F0000205C000020002C014029
:1017200060000020680000200004004070000020DD
:1017300080EA010210B502F00043400022D04A00C6
:101740001FD0010E01EB1261C0F35600C2F3560226
:1017500040F4000042F40002A0FB022000047F39A4
:10176000140400D0401C50EA124001D44000491E2D
:10177000C2B20C0604EBD010401C4008802A02D0F4
:1017800003E0002010BD20F00100002900DA002055
:10179000184310BD30B480EA010202F0004530F079
:1017A000004221F0004013D090B1C30DD40DC2F31C
:1017B0001601C0F31600E41A41F4000140F40002DF
:1017C0007D34914201D3641C00E04900002C02DA10
:1017D00030BC002070474FF400000023914201D339
:1017E000891A034340084FEA4101F7D151B19142B0
:1017F00002D14FF0004105E002D24FF0010101E0BB
:101800006FF0010103EBC450284430BC00F051BA22
:101810002DE9FE4F804681EA0300C00F0C46009080
:1018200021F0004123F00045B8EB0200A94105D2A8
:101830004046214690461C460B46024623F0004097
:10184000104347D0270DC7F30A00C3F30A51029093
:10185000401A019040286BDAC3F3130040F4801B58
:101860000098924620B10023D2EB030A63EB0B0BE6
:1018700001985946C0F14002504600F0F9F9064679
:101880000D4650465946019A00F001FA10EB080047
:101890006141002487EA115284EAE7731A4340D079
:1018A000009A62B3019A012A4FEA075215DC001B25
:1018B00061EB02014FF0004202EA0752CDE900421B
:1018C000001C41F5801132462B4600F038FA03B077
:1018D000BDE8F08F40462146F9E7001B61EB0201AD
:1018E000001C41F5801300185B412018A2F5001779
:1018F00047EB030140EAD570B6196D4111E06D0860
:101900004FEA360645EAC0754FEA0752001B61EB05
:101910000201001C41F5801149084FEA300000190E
:10192000514132462B4603B0BDE8F04F00F0F8B904
:101930000098012240000023D0EB020263EBE07329
:10194000009821464FEAE074B8EB000061EB040117
:10195000E9E783F000435BE781F0004158E72DE9B8
:10196000FE4F81EA030404F0004421F0004100949A
:101970004FF0000B23F0004350EA01045ED052EA1E
:1019800003045BD0C3F30A54C1F30A552C44A4F2F8
:10199000F3340194A0FB0254C1F3130141F480110C
:1019A000C3F3130343F4801301FB024400FB034E13
:1019B000840A970A44EA815447EA8357A4FB0768DC
:1019C00002958D0A05FB07854FEA932C04FB0C5406
:1019D0002705029D4FEA065847EA1637B5EB08057A
:1019E0006EEB070C870E920E47EA811742EA8312CC
:1019F000A7FB0201B6EB0B0164EB00042B0D43EADD
:101A00000C335E1844EB1C50DA465146E7FB0201EA
:101A1000C5F313044FEA0B3343EA14534FEA04327D
:101A2000019C43EA0603A4F10C040294009CCDE956
:101A300000B400F084F903B0BDE8F08F0020014647
:101A4000F9E72DE9F04D81EA030404F0004B21F0A1
:101A5000004514464FF0000A23F0004150EA050209
:101A600020D054EA01021DD0C5F30A570246C5F33F
:101A70001303C1F31300C1F30A5640F4801543F475
:101A80008013A7EB0608101BD64608F2FD3873EB4F
:101A9000050002D308F1010801E092185B41B8F19A
:101AA000000F03DA00200146BDE8F08D00204FF45E
:101AB0008011064684460EE0171B73EB050705D31D
:101AC000121B63EB050306434CEA010C49084FEA7D
:101AD000300092185B4150EA0107EDD152EA030051
:101AE00012D082EA040083EA0501084305D0101BE6
:101AF000AB4106D20122002306E000224FF0004352
:101B000002E06FF0010253101AEB06004CEB085193
:101B100010EB0A0041EB0B01BDE8F04D00F000B9FD
:101B2000C10F80EAE0700844CA079623002100F044
:101B3000C9B896230022114600F0C4B80EB540F291
:101B4000334102910021CDE900110A460B4600F015
:101B5000F6F803B000BD00F0004220F00040C10DD7
:101B6000C0F3160040F400007F2901DA002070471E
:101B7000962903DCC1F19601C84001E096398840FE
:101B8000002AF4D04042704720F00040C10DC0F35D
:101B9000160040F400007F2901DA002070479629E2
:101BA00003DCC1F19601C840704796398840704700
:101BB00000F0004230F000400AD0C10D01F5607124
:101BC000C0F3160042EA0151C208400711437047B2
:101BD000002001467047000030B5041E71F100047A
:101BE00004DB4FF00044404264EB0101141E73F12A
:101BF000000405DB1C464FF00043524263EB040334
:101C00008B4208BF824230BD30B5041E71F1000422
:101C100004DB4FF00044404264EB0101141E73F1F9
:101C2000000405DB1C464FF00043524263EB040303
:101C3000994208BF904230BD01F0004330B421F01A
:101C4000004150EA010206D00A0DA2F56072C1F30C
:101C50001301002A02DC30BC00207047440F44EA24
:101C6000C104C100E01830BC00EBC25000F021B844
:101C7000202A04DB203A00FA02F10020704791404C
:101C8000C2F1200320FA03F3194390407047202A41
:101C900006DBCB17203A41FA02F043EAE07306E094
:101CA00041FA02F3D040C2F12002914008431946A4
:101CB00070470029A8BF7047401C490008BF20F0AA
:101CC0000100704710B4B0FA80FC00FA0CF050EA42
:101CD000010404BF10BC704749B1CCF1200421FAC3
:101CE00004F411FA0CF118BF012121430843A3EBBE
:101CF0000C01CB1D4FEA00614FEA102042BF0020CB
:101D000010BC704700EBC35010440029A4BF10BCA6
:101D10007047401C490008BF20F0010010BC70470C
:101D200010B5141E73F1000408DA401C41F10001E3
:101D300092185B411A4301D120F0010010BD2DE93A
:101D4000F04D92469B4611B1B1FA81F202E0B0FA31
:101D500080F220329046FFF78BFF04460F4640EAA0
:101D60000A0041EA0B0153465A46084313D0114674
:101D700053EA010019D0C8F14002504600F040F883
:101D800005460E46504659464246FFF771FF084346
:101D900005D0012004E020463946BDE8F08D002042
:101DA000054346EAE0762C4337430A986305E40A84
:101DB000A0EB08000022FD0A44EA47540A3002D58D
:101DC00000200146E9E7010510196941DDE90845F0
:101DD00000196941BDE8F04DA2E70000064C074D2F
:101DE00006E0E06840F0010394E8070098471034EB
:101DF000AC42F6D3FEF77EF9141F0008341F00082A
:101E0000202A04DB203A21FA02F00021704721FA4F
:101E100002F3D040C2F120029140084319467047B6
:101E200002E008C8121F08C1002AFAD170477047A3
:101E3000002001E001C1121F002AFBD17047000001
:101E400000201949086019480068486018488860EF
:101E50001848006800EBC000C0000861164CFEF78F
:101E6000B1F902236F2200211448FEF717FA204629
:101E7000FFF78AFE05462A4603211148FEF787FD33
:101E80000949C860084601690E48FEF768FB0E4A1A
:101E900002210C48FEF7A2FB0A48008840F001002E
:101EA0000849088000BFFEE7A0000020341F00089A
:101EB0003C1F0008381F000800C82F49000C0140D3
:101EC0000004004000080040CD1E00080F481049E3
:101ED000026843689A4211D230B4846834F912C05F
:101EE0000CF5004CC5680CFB05FC4FEA1C4C02F1DC
:101EF00001020260C1F800C030BC06E0D0F80CC09E
:101F00004FEA5C0CC1F800C0FFE77047A00000205A
:101F10003C0400404C4A000800000020A0000000E3
:101F2000201E0008EC4A0008A00000201804000051
:101F3000301E0008881500005B00000001E5BA5063
:101F4000C6FAF32A40A4D8B563747EAA6430B03FC1
:101F50000080F233D15892B0EC1197146594AA4BDB
:101F600068EF38E32C6064AC6A3861132BE42A53C1
:101F7000B0A933E6791A24C8452051F7C6E53F3E9B
:101F8000F9CCC0F1774CFBC3FE1ED95953D861EA96
:101F90004DE46E0F3D1ED4DE96067FE5F9E5AC15E7
:101FA00068C2BEF795496FCCA50DBD546FF40F20E4
:101FB00084CD60D79B3FDFA920081154F9CFE5F20B
:101FC000B60E38F9F300FAF34C15C336E5DE82019C
:101FD0006AD0CCCA0D517FF8EC10972BA9BC81DBDD
:101FE0001E26D2D2DAFE342041CBAE493F137AA767
:101FF000B5FA72E8C2F8F5376BF57FF9B71D93E8CB
:102000006F378FFEC0C7A24A67DDBFF42615BECF6B
:10201000B53FE4FAABDA3C25230C59FAA1E3FFC241
:10202000E92115ED6FCBCF7AD4CA14EE4D0D4DA238
:10203000FF7FDFFE19D87B7809BF24DF56F36BF3EF
:10204000CC346DBF3FD6FA3336C493D53A2C62CE2A
:102050008640701BE4CE5166689C6500C446B3AFF1
:10206000F44FEDC84DD0B3485306841F75D56FE3C8
:102070008B27C6FDC2109E1D01D065FCD61348E516
:102080007D4441E167C924087CDCDE2DC5ED93FE6B
:10209000B0157CDE8E044718F011FCE9D5F140BA8A
:1020A0006F1FB3317CA1FF18CD404CD22AE8465BAC
:1020B00061D29CD0CD5767B6F609402759E54E1D31
:1020C00072FB1224D8C9D1DB902200EABC03130BA7
:1020D000CF0D27FB44137DF145F74318FBDAA3EE40
:1020E0005DD08726013D0BC91D15A025430141CCBC
:1020F00072FD623AFDCDD905060A3E068B25CCC796
:10210000A9FAA939F9FA79982848E5490B9C223FA0
:1021100056B5C9ECE84EB6B83F2C88F86F0DC5AD82
:10212000181AFF7F4BAEAE36F5CE3602D904B3DBBC
:10213000E35476BC492356E0D7FB0A21FBB0563462
:1021400078F342F2501548FB69D4192C9F1896AFCA
:10215000F87B6ABC4BD9366CC5C3070908EFB1FBE5
:1021600076D0542CF50C1EBB454D5FF120F012F9D2
:10217000820098E6F10C9D0A51E27B3870F0F1F88C
:1021800063061BF6BF09F0E42D085F07C7F49A2F1A
:10219000C7CB800B023575C098FC0EFA85F271EE44
:1021A000583F9109E203612887BD6401C5FE77F7B6
:1021B000C1ECD80AD7F982EC462FABDCCF0F381030
:1021C00062A3A411C224D7CFAE0D1D2B78DD34F746
:1021D0009C3B03B3F90C473F47AE9D0EC72338F62F
:1021E00057F1822967F4E3E91A1361D3AC2B871105
:1021F00055D11E13940D8BE611285C1678C81E2845
:1022000028F7ABC53948DE031FCC2A13501402F55A
:102210007BF90016FEF657F131DE2808630A17F63F
:102220006830DAEAD50362F62DF24208F5F6AA2103
:1022300098BCC2F9D51C5C005F06BEE5B02DB6CDDA
:1022400082E9642FCCF0E108C4193FFD8CE0BE3B6D
:1022500043D4A1E0A2480BC7B7091AFB54132A2C98
:102260007FE37D0688F89314DDDB380EE51E10C68B
:1022700005124609A2DF9C11741ED9C57612F3150A
:1022800065C0403ABFF48BFFE3114EC7B53A11E881
:10229000BE0E9E307BCDD30F59E4E6048C0F5FF366
:1022A000292DB403A6C9D615571D1BCA373CE7EA2A
:1022B00070C63A304BEBAE1E41F54DF848FE62E178
:1022C000302076E8AC15FA09B20A0E108EC17E14E1
:1022D000A21CA3C5D200E727D1C2BC2FAE1F26D6B1
:1022E000A63596C56F0C901030E0E241AFD91DEFD6
:1022F000F63347ED8AEC9426D1EED1EC0A0D6DFE53
:102300002A14C4DA350AA50EC6E67C0A84F8C80683
:102310000001911DB1FBC2B93824141814C5513AFB
:10232000A10C78B5052985F299F55A1F59D3C41C1B
:102330003EF01DEBBD3FD0E00DFF620B72D39CFB66
:10234000280917209109E5F1822D98E6F4D26A4F09
:102350007AE98DDF1320FADF3A1939092918380E86
:102360008AC1F90D41F6BDEA972996F2A3EF16103E
:102370005BF3CF0D21EC3FFFFC2A82AAC101CF0EF7
:102380007EC0E546E5079DDF19FFCCDF391C1E1135
:10239000D7FC921930E360EE8616E6EFE7FE0B06F7
:1023A0008E0388F53CE49327660C58D7472A15EA34
:1023B0001DD7CA3E44FC4A0735064BEDA4FE49F53D
:1023C000D73C1F0B34E4512569EC81EFD229A0E5FD
:1023D000B30587FEE6C47832B3092E00163BA1CEC2
:1023E00032D7A10CAEF69607D7258B10ECCE77F737
:1023F0009A3010EE26FDD30FD8C84E09181996F062
:10240000241D02F530F523F98AEDDF14EFEBD3F844
:1024100069FEEAF16F209FEBDC0D982629AF850756
:10242000A025CBCE8531F0121BCABC190B082BE5B9
:10243000B4182808B2F9E602B2F6721047002EFF6F
:10244000730DCAFBA2F0F6F1451FC1FE8BEA021E16
:1024500096DCE7E70128AFF05CFF331481038BFEC5
:10246000CDED97008A0253F18726FE1D09E9261457
:10247000AFEE65EBF8FEB8ED880A44F98D1C3A170B
:1024800043E949F88E031EFE73F9FE0BCD0247EDBA
:10249000D006CF0EB6F80A0BC40439F1F8FC71EE81
:1024A00011FD390B52F5E82290F7DDDA512415EDD4
:1024B00047EE681850FF53F1300B37144FF01404F7
:1024C000BEFBA2F371FF200692040800511080F4B5
:1024D000C3F32CF44314501407DEFB1672FB73E4B1
:1024E000B402950AB71CD0E05800340E65FC1115F3
:1024F0003D09CBE16CEF9B1785DD730EB015C2F97A
:102500004BEC91F33D2037E9D601B8186A0D4ADC4F
:10251000DA02470259FAFB2E37E9FA06EBD49DF7A7
:10252000E51EC3DF2323DBFC9AF3020CC9FFB5FAD7
:1025300051F8340E45F61915ECF9C0F08E1931F347
:102540009D0C61E88CF612109F03BC057BF7F50D1E
:102550004FDA56080D1244FC570649E33C0F36018A
:10256000BB07D80A85F17004CAFD200802F6D31112
:102570002E03AEE2BE1080F579053A048C0CC40837
:102580007BF8D2FCDCF67A136FE10F1CCC0759E81C
:10259000021F72E5C502AB05A9F8E4FA61FFEA0380
:1025A0000AF6EB12F608B708C3E036ECDB125EF66B
:1025B0003E1925EF61FDEBFE8A04D227F6DB520CB3
:1025C0000AE335F01F200F0ACD182CE20C018FFF13
:1025D00091F541F7DA187500EFEB4E20F2DD1E138E
:1025E0008A041DEDF61BFBDA2E027AFF2D06BB1DB9
:1025F00094FC43EC7AEBEF17FEF5BE103E05F4FBBE
:10260000860259E87D1768F03E1AD0F5A7EDD6137B
:1026100050E96A260EF7FCFED2006FCA83119120A2
:10262000670837FEF4FEF3EDBC044703E5F38519B4
:10263000B9D53B163D0AB7F4602DDBCFBC032BFAAE
:1026400076FF9B02A4FE24205CFF71019FEA4E08E6
:10265000C5ED96078009B6F5BF0C66E3DC22ED08F0
:1026600062F74D0C36C4951E98F9F8FF842228E1D4
:10267000662506CAE315B5FEAB18510D2CB6DE4033
:1026800098CEB4410AF8AEF3322E809F751643FE01
:10269000D020941133FE05E9F1DF7E13B0002F3B0B
:1026A000F9F90AE14BEC0CF0BE0D5B1A0E2220F09A
:1026B000A8FEABC73CFA741D200A543DF7D547EA83
:1026C00095F4AE09F9257A14EBFE37D4A0FB03DBB1
:1026D0008E17BD16990BA90D64D861FF11EA5D1222
:1026E0007C1F5B08210116D1D8F4A1F9181C741EB7
:1026F000BBF4CB0C6ECF3F0216117406BF1D0AFA55
:10270000D7F8FBD90511B9E66419DC3715D5FF05F3
:1027100049E178F5B415B81AEF146EE865FD24E0C8
:10272000D40B5D134A0A6017CFE31D04DCE0F60505
:102730000B1D0A0BFB16B7DBDDF147EBC113FB1AD0
:10274000EC11B9FE33D23F0164EF8A150D272FFE3D
:102750000EF9D3E443EC09FCF61DE314570484F4AA
:1027600072CF43028310AE1F541550E9FEE0A9E278
:102770000D148C0F652A64025AE1EBECB6E3FF1BE3
:102780000A0D7C1EFDFA78DE2DF180F4BA23340D9B
:102790003A1712E2EBD58E052600C432990D2FFDB3
:1027A000C7DF05E5C6126C04B527DBFD5EF726E939
:1027B0006DEDAC158104C2243CF811EA19EDD1F09D
:1027C000421BF90DFB1AEAEF25EDC4EEE0F8152ADD
:1027D00054FEDC0CEDF3FCEBA5F896048F12A80078
:1027E000AF1C77E10FF4EA04A2F2891BE00EDBFDD7
:1027F0000DEB02F5D3FBAD10E714D7F80403B4EAF0
:1028000001FAC007600092198DF371FF35F32CF5C2
:10281000630A5C02BD148DF2BBF5BFF59D0D59FC3A
:1028200071013311F0FB180711EB2D0423FBE00DB0
:10283000B30883E4BA0E8CF6D8F3FA1B970285F23C
:1028400061FFC6FA16FBB5107901DBFD5A0971ED7F
:10285000F204A8FFD30EED09DEFFF8FEF3EA8009CB
:1028600069FE2E1775002CF8D4F6F3ECF50D68040C
:1028700083104B0497EAD6EBFB01800CDF117F0E2F
:102880004CEAB8EE9A0423FAF317790530F5A8FD5F
:10289000C4F2E2009B0347172CF8890630F458E98C
:1028A000CA10A4FE8311530413F4BBF33CFAD409F9
:1028B0007F0E4F01B6F595F3E4F8D907EF13D60074
:1028C0007EFD11004EF4AB0340FC170D9E07B804CB
:1028D000FEF43DF467082AFE200A7E0190FAD0F546
:1028E000E3FD05FD6F0D6708B5FC48FC49F8B00134
:1028F00004FF31056C043E0306F9F0FC23F974066D
:102900009D0B15021AFEA5FB63F5FCFF340CD3FBEF
:10291000BF088CFA61FC27FC8A049F003202350A4A
:10292000B7F20800E0F7DA00E00D3105FC0065FCC5
:1029300046F17EFE7409DD075707B9FC55F8BDFD69
:102940001AFB9300381044FDBD01DBF902F8420583
:10295000380C07073BFF74F453ED2D07CC07620FCB
:1029600081045FF27CF55B0511FEB3081B0E9EF33C
:10297000970087FAA5F778093D0C7A00C90089F31A
:102980009EF1AB04120D730ADE0252F401FAC00389
:10299000D6FE280B09FC65FEA5FB69FF420569010F
:1029A0008E047101D1021CF13CF9B0024A0A1E10DA
:1029B000A4FE03F3A0FB66FAC904FD0C16FD06F99C
:1029C000E3FB87FD1D033D08BD004A0622FEE8FA31
:1029D00027FBC5FE8E02FE095705B6F6CBF977F642
:1029E000060E280BA4FFDCF7DBFB9F01F303B0010D
:1029F0000EF771FF10EE4BED7EFF1006441080378E
:102A00009230351EC00664D75DE7A5E30BDFBCEE50
:102A100088F53E07800AFF1ABB1D18F3C8F30000B3
:102A200056F6E7FF541403F13CE68F1159F9D0072D
:102A3000380D12F9DD082310BFF57AE89A0413F374
:102A4000E908AD0F1BF5EE032A01A2077103B9FCDB
:102A5000BEF70CED6BF52504F207010E8E164DF84E
:102A60000400CAFB00FED8F512FCCBF564EF0A2186
:102A70005EE4A13AB9FEDFD1A61E03DC8600D3FADC
:102A8000EA06B9FC4A1D421949F77AFD9DDF520753
:102A9000C2254CD147EC1F0C93E78D4961FEA9F983
:102AA0000B0725EFC2E4FAF1B5FD94F86C30F3EEB4
:102AB00078201C09A7F062F774F188F751FA33FD0A
:102AC0008AEE5635E80FB0FF4B02CBE1AAF32B128A
:102AD000EEF2B8021C096BF744103A0206F85306EE
:102AE000000079F0FA094CE8300BE314BF08410C00
:102AF000D4F65DE573F64F170FF6B81626FEECF820
:102B00004D0F1002CCF43A046AFC23FAB70696EE95
:102B100085053A05A207F0FBC30903F2E200670747
:102B200037FC740966F7E700DFFB6804D8F6EE03AC
:102B30005EF9E711930045F87C07F3EE5E0C0304A1
:102B4000F5F67CF2200A0110FD0CC3F641F4AEF359
:102B500076FE3B0184F61A10390AB309630847ED83
:102B60000CEEAE0CF9F79C0F4CFF9AEF2D083107D5
:102B70006B0B6002CFFAEAED0BF3B9FBA90D7407FA
:102B8000900C1C059F0292F149F841F551FB701C15
:102B90000EF99B0376FCA801170B3A06E1F336EB1E
:102BA00082FE7904D907EB13E1072CF8A80092EE16
:102BB0004DF724F5000121022F0F890654FD670906
:102BC00058FFAF043AEC34F633FB69015D141C087E
:102BD00066F9BE0E4AF2F0FC3604D3E431078009F0
:102BE000AA0851FB8F0040FCE00DDFFD78F16C047A
:102BF00083FC3605D30E630615EB060A5FF3D2FCA1
:102C00009D0B9EF293FD700843FEC101BC044AF285
:102C10009C126FF6C0044810C1ECCAFD2F10D3F906
:102C2000AEF8611227E4D2FEBC1A17F8C6FABC0649
:102C30000B08B5FBB5E7F300F90F24F4020A5014B2
:102C400069EC4AF3C81B49F5F0F95706FBED32026F
:102C5000380D371400FE81EF81F11914F3EDAFEF59
:102C6000F9250DEB1005561EB7F4B4EEFC0015FE69
:102C7000170ACCF3FDFBE313B0EB8B10071AF2F14C
:102C800063E0E107A30481F0E108A4FFB31B7EFE2B
:102C9000E6EF1612BAE1A6077B0E53F165FD59FB6C
:102CA0007119F1F86F0B92EF74F43BFDBD01391F00
:102CB000E2D9BE109607C102D80880F394FBEDF765
:102CC000660C4AF3100617F89B036419DEEE6BF7E7
:102CD00073F7DB12E50723FB660D9ADBD10453057E
:102CE0001B0C8FFC77E2FB181004A50F7CF5F0F9A4
:102CF0002CF35207B51459E82BFBCDEFFF1AA20AAB
:102D00000DFEBB083DDFEE0533131FF99EF22600D2
:102D100074083D0B59107CDF4607E8F800FE0622D8
:102D2000C7E1821546F1761490F7CAE79C138FEB42
:102D3000E61737D2A5370EFAB8ECAB317BCC0B1EB9
:102D40008BD232014B1AF4FD5C00E5F3E83AF8E966
:102D500003086DC08D09C62490CFE04EB2CABC18DE
:102D6000CFFA8EED29193FC09C3EF5CB513AB0FF0A
:102D700029DB4D2312D0A53A22D25F1CA6DE4011DA
:102D8000C70B2DDCC63D78B4EC50DAEAA7EE3BFC6D
:102D9000C7DFB73451CDCC1D0ACD2918781FA52423
:102DA000174C669062F988CD9206613D130B533043
:102DB0006EBA990DE5C92A13402498E339348CB9C9
:102DC00069282FFBDA012906E2EE02F4FEDFB24B9E
:102DD000C2BC9C2541F434F8594FDFA8332832D9BE
:102DE000B4EB1F367C0B1E12E7C0840B85F36A3CE4
:102DF000AF06B2E05D14DFA8B42DECFBB819B6F94C
:102E00002EECC52BAFEE7323DAC03A189BEA5303BE
:102E1000B6247BB8882446080235060A6DD5E5DD60
:102E2000AACAD12EE40B87101D04D0F2DD30E7E8EA
:102E3000BC0643EA4ADE9F03AB06E909A9F8553907
:102E4000F302AD105ACABFDFC21027E54F2E2DEE98
:102E5000EF00F1F66B21C81BFBD9EFFF13DE8710E3
:102E6000E1F282019C2528F5222AA1F7F7EE45DF41
:102E7000B1E683244EF5201CD9EE4A088A1799F44E
:102E8000DDEF5DE6F00EB8EB851AF8EA911CD50689
:102E9000FCE8BF4AC1BD7AEAFE0897E9792CDBF964
:102EA0008CF71D198DF527FCA910E9E07EE86A234F
:102EB00084E065291B0DFAB2AB4591F5BC021F0FEA
:102EC00021DAC9EEEFFF68035815662537BEE823FF
:102ED0004B00B3DBFE2113F74BEB241D12FA3ED956
:102EE000F93AF8E80AF7262A16D026FEAE1FD4DDF6
:102EF000313096F1A2C7633143EB48FCF93813DE59
:102F0000DFE83326F3C24F1BEF16DCE05A1F5C00EC
:102F10009BEB060EDE029DE32F28C2D1A2F567359A
:102F200084E1CB0EF538FBC254EC622224C726277D
:102F3000E311ADE5A21EE6EC46EFAA35B3DC90F94D
:102F40004E1C9AC416103A2E55E3D615B4190BB47C
:102F50008820D1EE9CFB3C23A9CFCD18340EA1F7DD
:102F60009E098B27C4C61804631C0EB8472EB20BEB
:102F700014F29534B1E4B1E7240BBAE5EA1A8310F0
:102F8000C6D08908882132D8082CA20A00BE8B2618
:102F900065FC1404440F3CE648FD7A1475EB0B08FD
:102FA000501554D3222A5401B1CFC92B76FC44E4E6
:102FB000A429D6EC0FE02C205EF5A415170A60C2F8
:102FC000AA1FB309D0F16B344DE299DFA412ADFD15
:102FD000DCF43A1BE5F2A7EDCB21E2D9B3082D1AB8
:102FE000F5E1C625CEE9CAD39A3214EEA6082A2AFC
:102FF0000ACBE3E6F7154E06A3040B1DBBDE9DF9D5
:103000002F1128DEB528D8F481F1152C85D901E6D9
:103010005924F0FA0707CC1BC3CA01FAD51C06F9DC
:10302000E11BEFEBBBE0C7200AF642069D20D2D29F
:10303000F6F2A21D6CF2C1014C13D6D79717BC193A
:1030400034CC9312F2F15EF9A61D29EFAAF5461AC7
:10305000712C340B9EF397D69B02B7F11DEB8D3488
:103060006AE675EFD00994FC4B1921052DF2C9FFD2
:10307000C70A05CF351C120F13DED049BBDE8AD834
:103080009F2C2BE4C2F8B926B8D97CF2A92643EBD1
:103090003D1FEA0367C976263E048DC7CC1FAB04EB
:1030A000F3EC5C2D8FE733FF6732E8CCB3F3E71620
:1030B0006DD7CE13E00F35F4862C4EF48CB8633206
:1030C000CF100ACFC02D6FE0C5FF1C31C0DA9C0FB6
:1030D000941125D87408AC0174DC5E243B1412E50D
:1030E000FE1F6DEB9ADDC52C22EAA0FDA719E6DBD9
:1030F000E00D0B1B5BF33C0D8AEB45E23A1B07F43A
:1031000046083A1B81F198FB9E078AEE5DFAB511DD
:1031100090F74302A0FFC4EE8D078D1EE1057CF5FC
:1031200012E577F8800817F49A1B58006AE5BC1876
:1031300030F7AEF5BF1FC2E72BF95E0D3DF32FFC54
:103140000F0A76FDEA03520CB3DDF315520A49E487
:10315000251924F15CEBB01876FE47021805B2F68B
:10316000DE026EFD12FA3F014E06F7EDAC17EFFEE0
:10317000C1EA531B8EEEEA02B110C0DC7EFF0926C5
:10318000ACEB7E00E80EA9E49713EB126FE1F410AC
:1031900073F546DDC12AB5FEB803AA0CE3E7640265
:1031A0007406D5ED25051F0DEAF0840A09FEF70126
:1031B000A0132BF94AF3F4FD2BE407055524F8FB83
:1031C000CD0037FFC6E59F034413A7EC7610F4FB50
:1031D00032EC4B17F8FBA0FC410C03F32FFC6EFC08
:1031E000E6F0B81618072FFAC1FE1101B7F4D103A3
:1031F000D506A0FF29051AE4DC0B5B05E8F9B1123E
:103200009F0030F98E0405E97DEE9825420681F194
:10321000F10ABFF6FDF7B111A9F8FCFF0EFAD0F1E3
:103220003D0AA90D50FDE3FEA0FD91F2170B99F4A4
:103230006806730D14F1D104E4F83DF6F3175DFE52
:103240008DF2F41325EF24F1BF1EB9FC47EC3F13B8
:10325000C7E300FE41221DED5F08E202F2F0D00755
:10326000C404D9EE0707DD0751F8680527FC58FFAD
:10327000A50E76FDF6F4AF04EAF12C094F05BEF871
:10328000910A34F99F02300CB4ED7CF3BE10D4F4F3
:103290003506481470F14204FB0566E56709D40B56
:1032A000ABF0BB0B21057CF42EFF93003D0C980E78
:1032B000ABEEE1F491F58FFDFF04730C030594FB75
:1032C0001501F9FA7A12CBF55802AF04F6F34AF178
:1032D000D1EE6A11641AB111C6FB3B001EE6FEDF97
:1032E000590F9C1180F32A0257059204340FDE0314
:1032F00012F9CAE83AF0F9F85C15F8119D0C4B0583
:1033000027FC4CFC7FE4D8F75C0346F1AF08AC1512
:10331000CEFCFB1911FE09E60C0208EBA1F67116B2
:103320007A0026FF9F18A702E3FF61FBF4E7DDF1B7
:103330000304A8FDF10A3D0BC903031927FC81EF23
:10334000C8F082EBEB01400FC5014B04240BEA02ED
:10335000F60537FF76E9A1F76EFA23FBAF1DD8F526
:1033600066F9751978F52808FA0907DD840AD1018C
:1033700096DA181AAC1644FB4608E50990E40AF9F7
:103380000E0D70F158FF5EF67903B4041B0B741C2C
:103390005DFA3FEBA0FDDDF091F408179604E3FC25
:1033A0001B0AD7F9BEF8D006B306E204E5F27AEAC2
:1033B000CEFC3D098505E11CFF0403D9EA03530255
:1033C000EAED910ABA0C94FBB1123B120EF852F6D8
:1033D000AAF6F9FAD2E911E71113AC13CD020F20C6
:1033E000E3FE22E80EF90EF71EFD8FFED103AB03BC
:1033F000F8FDBC05BB1C22FC53F03BFFD3E4B2F547
:1034000048104E0AA400660C5A0A56F565FF9CFE49
:103410002BFC1CF3C8F37C0BA6F5410C5A20C0040E
:103420004EF492EE20F3B1FB2A023700230C63F531
:10343000FB01060BBB087B0D85F32CF59EF49B016D
:103440008FFF570761FC38F6B514A607B7F377F876
:10345000A2F20AFA900F97FEE6022D05D6FFF8FFBA
:10346000C80523F941F3AA0893FDE2038D07A6F2EC
:1034700015FFC30C74F2930076FF000187FCAFF2D6
:10348000D51AFBEF4AF3301FDCF4B900AA0C78F32D
:1034900059F973F8A10DB9FFB5FBDC0D29048EEDC8
:1034A00001FAEB1277F88CFA7BFB1EFCB2F771186D
:1034B000C70CA6F3F30166FA4DF9DAFF0B0946F3E0
:1034C000EA03F0FC880A3BFE0FF6A10E2FFDD3FAAB
:1034D000E9F4C7F502F8D2163F1433FD24F42A02AA
:1034E000F4FAC4065B0563F41FF817F8811B61FE4C
:1034F00082FFC5FF9B016AFA4AF368047BF7420624
:103500008C0C2D06A6F31C0900FE6401BEFA72E9BC
:1035100082016709F3171407790202F428F53EF1D6
:10352000CAFA33FD9B014C1197FE2F0F11FD02F7D4
:10353000E0F990F85AF8A4FCF61CAC141AFE5DFDF4
:10354000B7F1E7E916F97EFF130CC6FA9108FB19EB
:1035500098FBD4F64EF133FEECFBC3F63909410B70
:10356000680335096C038CF9A4FD0EE302F7C6125B
:103570005A0BE6016D010910A0FE0EF853F017F783
:10358000D7F950FE65111807D80A27FA05FCC100C3
:10359000D1EE08014302F8FEED0A1AFD18065E0B93
:1035A0006EFA87FEEEF11BF78A00E7FF5207C007AD
:1035B0008FFC0802F205FDF9E3FC53EF670A3E06B3
:1035C000D5EF8FFF340B2C0DA1F94205C4F15BF24E
:1035D000DD07BB0B8DF454E9042ABB1E42D9B9D1D7
:1035E000292DDE2E92DBDFE5AEF7B511EF1363F286
:1035F00051F853063E06B3F103F1CC1DBB0A18F394
:103600006EFB5BF092062A15790265EA5DFDA30167
:103610001D02170AEDF3A90D520844FA14EECDEB82
:10362000841FE9092CF8EA0418F2C4EFE1096818CC
:1036300037FF3F02FFEDCEFE7FD102B8FF7FF8508B
:103640000080FBB0FF7FFF7F008000806B61FF7F09
:10365000340B00801C09006D1CF3C807A58FD2FC39
:10366000FF7F99E106CA29DAC9155D527140CA91F6
:103670000080FF7F9534FD9048128FD3B93D7F25A0
:10368000B6E2A2B2B621A25F0080F0282032E8B9EB
:103690004D3680F616F906DFE932C3F68EB0FF7FAD
:1036A00002CA3BC08A2E92D70C30ACFE000095CCEB
:1036B0004E1DE729E1B2E15D0DD426BFD54678F570
:1036C00033FB77E3E91F0A0BF4FC1C057BB77A2870
:1036D0004E1DD8F3BF09BFE065FC1C09C03120F0C6
:1036E00069D305258DDF4300FA1CF1F5570472FDFF
:1036F000ED08F0D1AD25EA1A3FBE4C3F8CE4A4D5CD
:10370000A32C06F76E0EADFC4D0FF8D271FF3B41B6
:10371000F9BA59268D06FDCF8B2646F3510D6FF46D
:10372000A90EEAF1CAE95F1D25DB252F1F0CF7D78B
:10373000D904020BFB017AEB851CB3DAE2003F28C7
:10374000A9E35815F8FD91F62EFFE203ACE945F523
:10375000503F56DF03F0BC3010DA43ECCA1334F6A6
:103760006F0C070796F08DF3DC1F1A13B5D0951D6B
:10377000FADEC7F4373FE0E1CF0C9DE3800CA50DE6
:1037800071EDC128F9BA510D2B23EFED211608EB8D
:10379000DD08BFF2FE094B00C2E47721EFEB4302E4
:1037A000A31631F015FEB60B6BF3FAF1251A71EC86
:1037B00085F0CC1F200847EAA608DA020EE512229F
:1037C000A40022EA4B17F6F308ED510D410B7BF8EC
:1037D000BDFE27FABEF8EB00AD110801F1F4890730
:1037E00051E5EB16E80CFAF4CF0DDCE35A0CF0F9D6
:1037F0000C02640492EF062110EFB5FA61FFF1F4B8
:103800008C0F9F0189062EEBAA08630713F3361865
:10381000EEEF1FF7490C7FE64811922F90CC0CEC8D
:103820004D36C2E49CFD3FFF6AE3F9254A067CE081
:10383000BD01C320A2F498E3DE19C2F958FEF10BD2
:10384000BAE2B8045A1FE0F9AAF2450B75EF8DF2FF
:103850007518D50310EF940E651140E4A400660DB1
:1038600046F11210980FF2DE2BFAF00EC5E9A718F8
:10387000D504F7D7490CDB121B0C51F7E00CAF0451
:10388000D3E648100DE99702B71CF4E7CD00FD0E12
:103890002DEF0AE3031C230D40E55014BEF738F664
:1038A000A717AEF702F87C0B4B02EAF1CC05100229
:1038B000FCFDAE0933FC27FB1BF56AFC09FFE7138F
:1038C0009A0638E2BC03AD0F1FF7B000300E17F6B2
:1038D00096072FFBEEF0C21197FE51FA00FF9604F7
:1038E00039F588F7C917E203FDF8B9FC28F2CAFBDD
:1038F00019180C0442EFE90900FFD6016B0CB2F471
:10390000E6F0B0026C0365FC950CB1FE8BFB35074D
:103910000DFF99F641F3FB02D6016F0D9509F7ED06
:10392000910A9E0813F59301C0F0A8003E047008A8
:10393000460833E8230C16FC65FF331493E89EF425
:10394000C309DF110D00ED084FECB4EB7F270BF43A
:1039500090F9ECFA7F0F6A0E42DB140519010F1D76
:10396000F7EFD1EE5F07E1F25319CEE7841FD8F7E6
:1039700029EFE40F3AD80A25C2FC16F9B70900026C
:1039800070F3DA01A61D17E11114D5EF04ED3F1411
:10399000DD072BFC0EFA33146BE22213F3FF5EF605
:1039A00037FC09FBFF1A05E96515D5EEAB079CFE50
:1039B00001F97AFFF9E145378DDD5A1FA4FE9EDE3D
:1039C000891DB6E47A117BE4112921ED95F4932940
:1039D0007FCD1127B9E911FDCA1075EBE10722E887
:1039E0003E2DB3F15400D40C34E1160FE8E4D32398
:1039F00028F65703A50EA9E2FC1404EA2F11EDF5F1
:103A0000BF0C9DF864F0761394E4881F1FF76FF7DE
:103A1000F303CD01140356F43616FEF5A4001CF191
:103A2000B402081832EECB0F1BF5D4F5A1F8DD0770
:103A3000F50C75EFD02055E767F3CD00B5108A156A
:103A400040E78E161DD8BC026913BBF3D7110400E2
:103A5000B60B2CE04B05C5004CFC0C17FFEE4E0BD3
:103A6000A3EE26FE3B019717BEF886D67F3B6DD8A6
:103A70000AF7B92652F2AC0114F2871303EFEBFEFA
:103A80003C0D6EFC9B0043013B01A0E860177100F8
:103A9000C2F9E00FCFE1C102A10EBBF52409A50CCC
:103AA000F8E8A1F9181AADE3DC0B2325E3FCDAD51D
:103AB000DBE7B2372FD1900F663B3EC5750276FE2D
:103AC00041F4D229F8FB76E95B1E33D0F3002226BD
:103AD00066E3B331FCD568EF5A1F7FE35E2453F1F0
:103AE00012F8A8120DE630F47D2E55FCABDAE11E7B
:103AF00023E1DE17C40677E2772125DB0A0EF413F3
:103B0000E5F28908D9F2C8F38F15690028F2AB1ADB
:103B1000ABD9840BFA1D68D8BF1E54019ADC780A11
:103B2000340F40FC390B8F00CDEB310904ED1A0F37
:103B3000840DA6F4140767DF5C19780AA1F9A90EB1
:103B40005EE3CAFBD6157BF7A7EE631DC9EC6000E8
:103B5000211835F1AF08C1E83D0BF60735F1900F9C
:103B600038F66001E907B0EC990BF00EFAE0BF0BF4
:103B70009300FBEE1A26D2FFB0EAB70807F048FE22
:103B80008C22E6EE98F912FBF6F05028C5EA94FA7A
:103B900011152ED4791A6C1D57DB410BB70A7FE63D
:103BA000ED0C700750FD150231F0F208A1F65A0D28
:103BB000D90381EE662272D2CFFA9B2A9BE99B0041
:103BC000BC06D3FB36EFF11F01FD38E45A1F03EFAB
:103BD000CEFD1B0B9CFB72FD49F70D1116FDF0FA93
:103BE000290747EB40111E1045E2E7119F01EFE95D
:103BF000A10F76FF01F9D40BB2F940F9800C26FF32
:103C0000710361FDFDFB33FC6FF682139CFE60EFD8
:103C1000441339F5A9F9551111EC410A2C0C7DED2D
:103C2000FF056A0FBCEC8CF7AC147BFBBF0841F7B7
:103C300062F6910828F49D0D24F46F0A280853DADF
:103C40000525A4FF68ED971708EDC3F64811530248
:103C5000B3F0B01830F8B2E1E11DA0FB67F5D40B6A
:103C600000012BF9F5F7450BCEFBB1FBC20E38F77F
:103C7000E602C101E9F2170B530430F5CEFCF50B57
:103C8000E9F201FCD31102F7C90126FFDFFAAB0309
:103C90009A04BC02F1F4B70A50FED1ED421A7AFC44
:103CA000D0F12B10D8F6F9F981054B01BDFCF208D3
:103CB00077F61BF586155DFB61FC3202B803EF0158
:103CC0000FF33313B6F638F6900E1DED4F174CFE7A
:103CD000EBE9620E51FA000187FE780A26FDFAF13F
:103CE000C70A2A0211002601DFFD30F9FF04540142
:103CF000ECFA5911E9F3DAECFC1172FE61FD5B0696
:103D000002F8E3FF6002B5FD1B0B3105CFF6C901D8
:103D1000C101B70718F07AEA120E83FD670A4D0E4B
:103D2000FBEF1A0F5000FCE9BF0BB6F9CCF292037F
:103D30004206560C0C04820045F50AF9730B02F793
:103D400067F33B14EE0419EC001783FD91F30D1299
:103D50003DDFA316240814D9D51BF70205FC470341
:103D6000A301A0FEAAF5ADFCB5FF9826DDF261D057
:103D7000FB18C72080F58AEBC70A34FA01FCE7007C
:103D80000DEB262BF20675D69F174F03E1F1FA07CC
:103D900084F5C9032B0F3CE34204AC2ACCDF09FCB9
:103DA00096197CE1A50EFCFF26EA4922A9FBB5E69F
:103DB0002A16F303B1E70A0C7007BBF1A608ECF86A
:103DC000EDF6251909FEC9ED1C1BB2F907DE631DCE
:103DD000D90496F0401160EF8F006111D6ECE40D2C
:103DE000AF070EE2A3044F050402D80DC4F08F0004
:103DF000C20F9BED83FAE218E8FB8FEBFE08580236
:103E000009FD2AFEFEF4CF0F890897EB78065110C2
:103E10004CEAB803C11602F5A20A01FA8BEA501463
:103E200099F625EE25189CFC57EE980E0305C10166
:103E30002D076DEC16F9270F78F44B02291AFEF2C4
:103E400013F6410C5AF88BFD6803FDF8AF079E0985
:103E5000AEF3EA035F071DEED2FD14057E007D037D
:103E60009CFB2506FD0E66FA77F8310853EEAEF39B
:103E7000300E93FE5A0EB000B8EC4D106D020CECF3
:103E8000E2020C0580F6BF0B8C0CB9FB3604E9F29C
:103E9000E9F3FA0A09FF35F4A6090F09C2FB6F0A14
:103EA000DFFDD4F4EBFD8DF4AE09F81089F1BC020E
:103EB0008D094EF5B7070001A6F63605A2F205FDFD
:103EC000DD1C33FCB8EEFE082AFE2BFD180430F989
:103ED000F2052D050BF31003340E20F3E3FC940FD1
:103EE00023F733FB150209FFC407EF0033FB6C0413
:103EF000CAFD20F474068104CEFD21036AFAEFFFA7
:103F00002D04D3F9EE053108F3EC6D015A0EE1F002
:103F100078098D0A9AEF3E0593FEB9FCCF0FC5FED6
:103F20009EF447032E011FFA100544FC4704BC030E
:103F30000BF2830EAB07CDEC3700F60997FEFF03BB
:103F4000150134F5180443001BF70F0AB0015AF7A6
:103F5000A70336044F02A303FDF70FF6CC067AFF42
:103F6000C1FF390787FCCEFFC4048A0159FC99F6CA
:103F7000A0FE300B9CFC7FFAD80869FD83FA3A0456
:103F80004B030D0016FC2CF76C03730D3CF810036B
:103F90004D0DC6E711009C117FFCFDF932EBEC10D2
:103FA0000A206EE66EE62820A20A53DCDA00311AF7
:103FB000660D2BE468ED0E23C006CCDD2A01E5205A
:103FC00078F559E7EE040620EA0524C996066D2D1A
:103FD0002EEAF3EB2E17E90832EE2FFD2E03901098
:103FE000DCF55BDD6224A10C4BEB880E4AF424F671
:103FF000A81434F801E74A1E380FCAD46DFFA9236C
:104000009B0152DF3CF92F2531052ED69E08502901
:10401000B1E823E1971541200DE9E3D3851C06366D
:10402000C5E967CA4C269B181BCC7903F025F10B18
:10403000BCD8A6DEE037B817C0C47006CE2875EB32
:10404000DCE1FB04033137FDE1C5340F82298DF338
:104050008CE4840B141B1AE58CE09424BF1ED0DF83
:10406000D3E61C1AB514B1E83EEFA21CF30280DDC2
:10407000B305301F560841E18DF401250AF81FE40D
:104080005414A2095FF21BF56003CF2159FAB5D28F
:1040900081186D1774DE7E01C5150DFD2AEAD3FB6C
:1040A0006B1E9E057BE522FC4715AF043BE897FE9F
:1040B000B819A5F79FED2B0FF609DDF3B3F2D10583
:1040C000E2195FF061EA3E1A14066BF36AF8E10840
:1040D00098126EE868EDBB206405B5E5170A700814
:1040E00044FAECFA48FC441311FD4DE3A2084A1DC2
:1040F000E8FBA9E6B000E216E4F814F0840D8908A4
:104100002DF053EF0418471772E90CEFBA10920321
:1041100018F36402E604740947EAB1FBCC1ED7F831
:1041200007F4BDFC57042504CFF93FFF8F110FF6AC
:10413000ACEC7115890788F63CF8EF000A0CD2FC4C
:10414000D0F59010C6FBCDEE240A6707B4033DF20C
:1041500049F966101100DFFAD505690177FA4FF0C9
:10416000E10897145FF3AFF07807B7095DFC8CF7AF
:104170004E06450B9BEA22FD1D1733FC03F12A0274
:104180005F06D00745F78CF8A41249F7E1F4A303C2
:104190005E0C1D0270F0A703730C30F5ECF9410AB8
:1041A000AF0477F824F4900D3203B7F043FF312FBA
:1041B000C903E1C96CF0281FC22424DD9FEDD30F91
:1041C000940D2D04EADA8D0A552574DE45F70B1F90
:1041D00011EB6002F2070EF74D0DB4ECEF02141B69
:1041E000B0ED74F0E6016A11F30339F24B0382007B
:1041F00099F4F606A90F44FC8200A3ED0306F81219
:10420000DDF35B0802F8D0F4D90583FCE617C2F9A8
:10421000ECE4B01604012BFB280A95F4E3FE20061B
:104220003AEF58145B0866E6C806B0FFFF03430286
:1042300019FFE7001AFC7AFC840A5401F1F6DBFD51
:1042400055F98C0F79012CF7A206E7FF3DF45304D2
:10425000300E0C02D4F2F6F39D0E470161FFEE051D
:10426000AAF5E605C3F7A800681925EED1EFBF0847
:1042700020086DFF9B003BFE22FFCAFD63F2051381
:10428000390B19EE23FB53026B09110116F99A073A
:104290001BF9C7F72D050B06FB052CF55EF79D0DE9
:1042A000A302A6F3C8086306BBF554FD80084E07B9
:1042B00030F9F1F5D009C1FDBEF98E0469FD7C0B22
:1042C000C7F4CFF7F715BAF614F2520CD503E20093
:1042D000C2FC0DFC670BA5FB6FF65E0B680351F883
:1042E00048FA1004340FC4F15EF9C809DBFB190168
:1042F00086FF8E05C900FEF39701941027FB80F41A
:10430000B3069B00ACFF8BFBB001020D7DF04DF9B5
:10431000490D03067EFE10F1D9068E0567F4680686
:10432000740945F5A5F881076707790334F551FB52
:104330009D0D2FFA6AF9B20D72FC34F912FA560982
:10434000BF0918F298FB3E049A08B9FDC6FC2D057A
:1043500054FFDDF281043313BAF928F2B400CC091A
:1043600087FE83FD10057101D0F383FD7B0FD90318
:1043700088F8DDEF1309DC0C3CF88105D2FCADFCBC
:104380002BFDB00295092BFCD3FB40F9D40908039F
:1043900095F5DE027C08C2FB25EF1B0DFA0A4EF5EF
:1043A0002101F5F9DD043D0830F7890526FF34F7D2
:1043B00043038D0912FCE0F53605A7045CFFE8F91C
:1043C0009B009A0594FBF3FFDAFFEE07B40121ECA2
:1043D0007F0E350863F579033BFDC005E3FB62FA08
:1043E0009A067C076FF891F60E0CEBFD55FBDD0489
:1043F0007E0187FE94FAB404F700ADFDD6016DFE90
:104400002105ECFAFDFAF20883FCECF90F08D80953
:1044100073F713F33507D1031AFE740558001AFB1E
:1044200098FCCEFEC0069607E4F7ECF936028E043F
:10443000AC02B9FBCEFFA4FE51FAA206630683FBD1
:1044400015FE26FD1308CD03A2F54303CC065AF44E
:1044500038F8E40D060B6AF8A7EEA3033D0AE6025E
:1044600004022CF4DBFD9604D601FE09A5FA8DF1B9
:104470009B033109190161FE40F8D007340D77E341
:1044800082FF4121CCF27EE9BB09880B65FD7EFFEE
:10449000D3F8C5FE4607A9FA8905950981F1ECF81C
:1044A000C807BC032809BEF89AF0E5091C0622FCDF
:1044B0005F09E9F66BF3BF0A1002F605E7FE08EFA5
:1044C000D4089109E9F6AF04D50680F309FDF20599
:1044D0009F010E0E1BF5B4EEC20E9B038DF5C807AF
:1044E000790436EE8D06240890FBC9044EF5D102FE
:1044F000AE0D06F8F8FE81061FF797FE7405E2017F
:104500004B05BFF387FA5E0E00FE76FD0804F5F555
:104510002AFF810726FED009F0FB3FECD0085D138F
:104520005EF6D3F8DC0966F953042FFC250244102B
:104530003FEC56F68908E50647FF76FC22FF66FB4E
:104540000306B8052006B1FA1EE899097F2494FCF9
:1045500037E67BFB4B052006A8FE4701D10246EF5C
:10456000A0FCB111A304BFF39CFBE1092FFCE7FE03
:104570007501C1014A0AF4E99B004F1935F165FC48
:10458000BB088BFB27FC0400C80586036BF5B2F85B
:104590002B0FA4FF3CFBA8015DFD5B072BFA76FF08
:1045A0005F0538F93605FF04A1F6CEFE8E018E02B6
:1045B0006C07D4F372FA3D0B9202E7FC66F7D50262
:1045C000170CBEF933FE7101FCFDEE0550FCBDFF7A
:1045D000920448FB00FE2905CAFC43FFC10172FB9F
:1045E0003908F0FAF5F9510D83F9BEFA960533FF53
:1045F0008D061EFC1AFA8907150137FCF8FF9A048C
:104600002FFE77FA1100A703100398F9CAFC1F0BBD
:1046100067089BECE9F629184F0374F248FBFF0585
:104620005F05F4FB1900D50472FD98FAB0FFFF0294
:1046300047016EFB7807A4FFFAF326FFA414EB01F1
:1046400052DFC6107D18B6E41CF4512401FDC8DD0C
:1046500055105D102AFE2AEBE4F8DB26DDF0DED9EA
:104660003C26D7118EDAFCFDC515C405EBFEA8E883
:10467000F10C660FAADF9618140458EC9A0893FD03
:10468000000010054702A6F1800AB5FBF0F94717B4
:10469000CFF717F51D0186FFCC07F608AFF2F5F846
:1046A000230DA5FB2103F30260EEA4136C034DE27E
:1046B0007A13D00A68F0D907D2FC23F7331334F504
:1046C00078F55C162DF12AFF9E05E8F89108B1FAFD
:1046D0009BFF700547FF52F4730D7005EEEF5F0806
:1046E000CAFB10069CFDD7FB520AF4FA61FE33FEAA
:1046F0003506D4F6E602770E9BED4F029E09DBFAF3
:104700008BFCC5FEB7064B025EF805FC8B1034FA35
:10471000B8EBB915100353F06003DFFCFE0ACD00BF
:10472000FEF41C05E106C1FD24F4E21761FF4EDD35
:10473000D409FC132D0556F47CF50DFFAA0AFCFDE7
:104740004B014D0EB9E8B5FB280C6306D905EBEC1F
:10475000DBFBBA107BF9CD01C212BCEEBCEE3E070A
:10476000B20CAA0CE5F53EF0FB0509FF3E07C503B8
:10477000630640F996DB1A25ED0AB7F0EA06B7F0B2
:104780003109B6F8950A100505FC44FC7AE9D41DF8
:10479000E70078F51501CFFAA60B0BF2471599F84B
:1047A00008EB6D14F2F0E713D80A28E183FDD00A74
:1047B0003908D2FDEE0753F153ED7518AC012C0901
:1047C000A5F787E722114301F10B4AF42E034E09A6
:1047D00066E2A71743FE37FD8E011CF0F90FF1F8D2
:1047E000EA047902BDFEDE0364EFBE106C0545F6F7
:1047F0008BFD84F8270FF0FC7C09E4F6BDEAC01AB3
:10480000EAF01B0E5F052BE5A50DBDFE5B08F0FA77
:104810005704E0F849F77E1217F8730C18F295F672
:104820001A0FD6FDEA0373F9D40A02F4B6F8F90EAA
:1048300027FA4E0BD0F1DFFA0A0F87FADA0061FC93
:10484000E507E0F9A9FB830F98FBFDF9E8F84109BA
:10485000E602DFFC520757EE4703A70569FE620F29
:10486000A2F140F8B002A4002C09EFFEAF0496F1CB
:104870008BFDED0C8A00180452F35401A4003F0292
:10488000A70412F93A0539F54E08460874F0E50810
:10489000A8FD50FF1B0A40F9150216FB72FC3204FA
:1048A0003E03A70634F840F811FD200A2E015800F7
:1048B0006002F3ED1B0B530215FFC70AD9F0A4FFEA
:1048C0004B045F05930145F8290412FCE6010C0432
:1048D00051FBDAFF6D0015FEA4FE7407C6FA48FC12
:1048E0009A0591F65707B80559F9850462F93A0314
:1048F000CD028F00D104E1F0B708030462F99A08F1
:10490000E3FE52F4E7FC16121AFA080172FD42F1B6
:10491000541383FC76FC5B08ECF9F9F904022F0FC1
:10492000BBF5CFF85F0801FBE10758FEA1FA4B0386
:1049300026FEC6FD8A02C30A5BF237FDF6082BFC91
:10494000310727FCCAFECEFBC5FF9A08A5FAB305BE
:104950003200C8F24204BB0905FADE01D5027CF43C
:10496000A206B30673F65306B9FD17F8A50C93FF1C
:10497000A5F922FE36024B0482FEEF0188F91EFFE4
:10498000C40405FE35062600A5F73BFE3108C90123
:104990001AFA4F043FFD26FE5C0208028603A1F9C5
:1049A000370027FBA3044F056FF64A0993FD56F61F
:1049B0002103670704FF2AFE65FFB6F5B307680405
:1049C000F6063F0068ED1D04AF0782FF5DFE61FE45
:1049D000B5FF5DFC9A04780902F6BAFA1C063BFFA3
:1049E000250398FC22FE9605CEFC4CFBC007E60191
:1049F0006AF97AFFF301200651FA48FBE204470105
:104A0000B0FF8F0093FD51F8950A310861FDB9FEA2
:104A100010F087FC6114E204F30189F33BE74718C7
:104A20005B0644FD0E0F50EBABF18909380CA20870
:104A3000B0021EE8A9FBAA0BADFDA013E4F8C3F376
:104A40002FFACAFC08195800F1F406F7000000001C
:104A50000000000000000000000000000000000056
:104A60000000000000000000000000000000000046
:104A70000000000000000000000000000000000036
:104A80000000000000000000000000000000000026
:104A90000000000000000000000000000000000016
:104AA0000000000000000000000000000000000006
:104AB00000000000000000000000000000000000F6
:104AC00000000000000000000000000000000000E6
:104AD00000000000000000000000000000000000D6
:0C4AE000000000000000000000000000CA
:04000005080000ED02
:00000001FF
